:1000000004308A00A72C0000FF00030E8301A1002A
:100010000A08A0008A010408A2007708A300780853
:10002000A4007908A5007A08A60003170D08031399
:10003000A70003170F080313A80003170C080313E6
:10004000A90003170E080313AA00831383128C3030
:100050008400001C2D280C184E2822088400230838
:10006000F7002408F8002508F9002608FA002708F8
:1000700003178D000313280803178F0003132908A3
:1000800003178C0003132A0803178E00031320089C
:100090008A00210E8300FF0E7F0E09008A110A12CA
:1000A00051280130AB07003003180130AC07003095
:1000B00003180130AD07003003180130AE078E0180
:1000C0008F010C108A110A122D284629C528BA1250
:1000D00066247A00C8244724BA126C33A5120000A3
:1000E0004E30840083130008031983280630F8007B
:1000F000F701F70B7928F80B78287B30F700F70B1E
:100100007F28800B7628080055188828081289282F
:100110000816831608128312D51890288812912881
:10012000881683168812831255199828081399285F
:100130000817831608138312D519A0288813A1283D
:100140008817831688130000831288158316881178
:100150000230F700F70BAA28AD280000831288119F
:100160008316881183120800D60183160816003002
:100170008312081A0130D6048316881600308312C1
:10018000881A0130F7000310F70D7708D60483169C
:10019000081700308312081B0130F700F70DF70D28
:1001A000FC30F7057708D6048316881700308312D1
:1001B000881B0130F700F70DF70DF70DF830F70544
:1001C0007708D6045608F8000800831688118810AE
:1001D00008118312881083168810081688160817CD
:1001E00088178312081583160811000083128815DA
:1001F0008316881100008312B4207808D500881176
:100200008316881100008312881583168811082927
:10021000092900008312B4207808D40088118316BD
:10022000881108128812081388138312550EF700DC
:10023000F030F70577085404F8007808D400D41F8C
:1002400023298316ED28D208031D2829881029297F
:100250008814831688100000831208118316081171
:10026000000083128811831688118312530ED40064
:100270000F30D4055408D500842053080F39D4001A
:10028000D500842008002830BD000C30BE000130AD
:10029000BF000630C00088118316881183128810B1
:1002A0008316881083120811831608110812881209
:1002B000081388138811881008110F308312CE009C
:1002C00070200130BC003C08033C031C6F29033044
:1002D000D50084200530CE007020BC0A632902308E
:1002E000D50084200530CE007020BC013C08033CC2
:1002F000031C86293D303C07840083130008C1009D
:10030000D2014108D300E520BC0A76298A110A12DD
:10031000BB2C4F0B8C298F294030D0009029D00165
:1003200001304E02D00750088038D100D201510868
:10033000D300E52008004D08073A0319A9290B3A14
:100340000319AE29063A0319B629023A0319BC2942
:10035000C1290130CE00CF008921C629D201013048
:10036000D300E5200230CE007020C6290130CE0037
:100370000230CF008921C629D2011030D300E520F8
:10038000C6290130D2004D08D300E5200800B63060
:10039000F700FA01F901F80140084104420443045E
:1003A000031DD429F701E1290310F81BE029C00D32
:1003B000C10DC20DC30DFA0DF90DF80DF70BD429BF
:1003C000F813080040080319A72ACC0044080319B1
:1003D000A72ACC02031CF1297F30CC070318A72AD7
:1003E000F7298130CC02031CA72A0319A72A4C083D
:1003F000F700F801F901FA01CB014108CA00CA1758
:100400004208C9004308C8001930CC004708C80298
:1004100003181A2A0130C90203181A2ACA0203183B
:100420001A2ACB0203181A2ACB0ACA0AC90A470891
:10043000C8074C2A4608C9020318352A0130CA02E7
:100440000318352ACB020318352ACB0ACA0A4608F4
:10045000C9074708C807031C4C2AC90A031D4C2AB0
:10046000CA0A031D4C2ACB0A4C2A45088038CA0206
:1004700003184B2A0130CB0203184B2ACB0A45083C
:100480008038CA074608C907031C292ACA0A031D5F
:10049000292ACB0A292A7A14CC0B4F2A5A2A03106C
:1004A000C80DC90DCA0DCB0D0310FA0DF90DF80DCD
:1004B000CD0D062A4D1C622A0310F80CF90CFA0C1B
:1004C000CD0C652AF7030319A72ACD1B8E2A03102A
:1004D000C80DC90DCA0DCB0D4708C80203187A2AEA
:1004E0000130C90203187A2ACA0203187A2ACB02F9
:1004F000031C9D2A4608C9020318852A0130CA0236
:100500000318852ACB02031C9D2A45088038CA029D
:1005100003188E2A0130CB02031C9D2AFA0A031D00
:100520009D2AF90A031D9D2AF80A031D9D2AF70A30
:100530000319A72AF80CF90CFA0C4108CC0045085D
:10054000CC06CC1FA52AF817AB2AF813AB2AF70163
:10055000F801F901FA0108000B08C1008B1383169A
:1005600003178C170C140000000083120313C11B27
:100570008B170318E32A03170C087F390313C100F4
:1005800003170D080313C20003170F080313C3005A
:100590004108CD009B21420803178D000313430837
:1005A00003178F0003130B08C4008B138316031764
:1005B0008C170C140000000083120313C41B8B174C
:1005C000C00BE32A022B03170C0D0E0D7F3903130A
:1005D000C10003170D080313C20003170F0803130C
:1005E000C3004108CD009B21420803178D0003136F
:1005F000430803178F008D0A03198F0A0310031392
:10060000C00BAC2A08004D080319732BD500510804
:100610000319732BD5070318142B7F30D502031C45
:10062000732B0319732B182B8130D5070318732BE9
:100630005508F700F801F901FA014E08D900D91759
:100640004F08D8005008D7001830D500D601571CE5
:10065000412B5408FA07031C332BF90A031D332BD3
:10066000F80A0319D6175308F907031C3A2BF80A9E
:100670000319D6175208CF00CF174F08F8070318F1
:10068000D617D60DF80CF90CFA0CD90CD80CD70CDF
:100690000310D50B262B0130F7070318732BF81B1B
:1006A000582BD90DFA0DF90DF80DF7030319732B1B
:1006B000D91F692BFA0A031D692BF90A031D692B3F
:1006C000F80A031D692BF80CF90CFA0CF70A031948
:1006D000732B4E08D6005208D606D61F712BF8177A
:1006E000772BF813772BF701F801F901FA010800CD
:1006F00083187D2B553084008313F701F801F9012D
:10070000FA01D501D601D701D80154085304520487
:1007100051040319BB2B2030D9000310CD0DCE0D91
:10072000CF0DD00DD50DD60DD70DD80D54085802CC
:10073000031DA42B53085702031DA42B5208560275
:10074000031DA42B51085502031CB52B5108D502DB
:100750005208031C520FD6025308031C530FD70232
:100760005408031C540FD8020314F70DF80DF90DAB
:10077000FA0DD90B8D2B55088000840A560880008D
:10078000840A57088000840A58088000080004087A
:10079000C5004408C7000319E62B4308D0004208EF
:1007A000CF004108CE004008CD00D401D301203055
:1007B000D2008230D10003237A08C3007908C20036
:1007C0007808C1007708C000C70BCD2B4308D000C4
:1007D0004208CF004108CE004008CD004D08B63C8D
:1007E000CD00FA014E08D100CE170310CE0CCF0C6D
:1007F000D00CFA0CF90CF80CF70CCD0BF52BD11F23
:100800000C2CF709F809F909FA09F70A0319F80A8B
:100810000319F90A0319FA0A7A08C3007908C20011
:100820007808C1007708C000C31F232CC503C51674
:10083000C009C109C209C309C00A0319C10A0319C1
:10084000C20A0319C30A3B30CC009A30CB00CA302D
:10085000CA00C9010A30C70044080319C50A831435
:100860004030840083134308D0004208CF00410881
:10087000CE004008CD004C08D4004B08D3004A08F5
:10088000D2004908D10078237808F708031D5B2CB3
:10089000440A470203195B2C450803195D2C0F39E4
:1008A00047020319552C03188D2CC51B8D2C451B95
:1008B0005D2C2030892C2030C505C51E6B2CC5123F
:1008C0004408031DC5037708C5002D30CD009B21CA
:1008D0004508F700C50144084702031D792C770835
:1008E000C5002E30CD009B214508F7002030C505FE
:1008F00000303030C51E892CC5124408031DC503C5
:100900007708C5002D30CD009B214508F700C501B3
:100910003030F7077708CD009B2183104C08D000BA
:100920004B08CF004A08CE004908CD00D401D301BE
:10093000D2010A30D10078237A08CC007908CB00A4
:100940007808CA007708C900C70B2F2C08000308D5
:100950001F398300AE01AD01AC01AB0183161F143A
:100960009F141F159F1107309C008313FF308500D3
:100970008801831243290C30CD009B21C0308B00AD
:10098000013083168C00831290018E018F01283074
:100990008316810083128101AF010108013C031815
:1009A000CD2C10148316011683120108023C031883
:1009B000D52CF701F80177080E07B0000F08B10039
:1009C00078080318780FB1072B08B200003003181D
:1009D0000130B2072C08B300003003180130B30710
:1009E0008316011283120108033C0318F32C101024
:1009F000F701F80177080E07B4000F08B500780872
:100A00000318780FB5072B08B60000300318013023
:100A1000B6072C08B700003003180130B7073708B5
:100A2000C3003608C2003508C1003408C000C72121
:100A30008030C3009630C2001830C1009530C0002D
:100A40007A08C7007908C6007808C5007708C4008E
:100A5000E2217A08BB007908BA007808B900770863
:100A6000B800AF08031DC02D0130CE00CF00892192
:100A7000653003178D0000308F000310053003131D
:100A8000C000AC22893084003B08C3003A08C20091
:100A90003908C1003808C0000230C400C7234830FC
:100AA000CD009B217A30CD009B210130CE00023059
:100AB000CF0089213308C3003208C2003108C100C9
:100AC0003008C000C7217A08BF007908BE00780846
:100AD000BD007708BC003708C3003608C2003508DF
:100AE000C1003408C000C7213F08C3003E08C2004F
:100AF0003D08C1003C08C0007A08C7007908C6005C
:100B00007808C5007708C400E2217A08BF00790898
:100B1000BE007808BD007708BC007A08D0007908CC
:100B2000CF007808CE007708CD00D401D30148303B
:100B3000D2008530D10003237A08BF007908BE00B7
:100B40007808BD007708BC006A3003178D000030BC
:100B50008F00031005300313C000AC2289308400DD
:100B60003F08C3003E08C2003D08C1003C08C00069
:100B70000230C400C7232530CD009B210130AF00D7
:0C0B8000AE01AD01AC01AB01CD2C630057
:02400E00323F3F
:00000001FF
;PIC16F877A
;CRC=42FC  CREATED="11-May-24 19:34"
